{
  "_format": "hh-sol-artifact-1",
  "contractName": "BuyMeACoffee",
  "sourceName": "contracts/BuyMeACoffee.sol",
  "abi": [
    {
      "inputs": [],
      "stateMutability": "nonpayable",
      "type": "constructor"
    },
    {
      "anonymous": false,
      "inputs": [
        {
          "indexed": true,
          "internalType": "address",
          "name": "_sender",
          "type": "address"
        },
        {
          "indexed": false,
          "internalType": "string",
          "name": "name",
          "type": "string"
        },
        {
          "indexed": false,
          "internalType": "string",
          "name": "_message",
          "type": "string"
        },
        {
          "indexed": false,
          "internalType": "uint256",
          "name": "_timestamp",
          "type": "uint256"
        }
      ],
      "name": "NewCoffee",
      "type": "event"
    },
    {
      "inputs": [
        {
          "internalType": "string",
          "name": "name",
          "type": "string"
        },
        {
          "internalType": "string",
          "name": "message",
          "type": "string"
        }
      ],
      "name": "buyCoffee",
      "outputs": [],
      "stateMutability": "payable",
      "type": "function"
    },
    {
      "inputs": [],
      "name": "coffeeId",
      "outputs": [
        {
          "internalType": "uint256",
          "name": "",
          "type": "uint256"
        }
      ],
      "stateMutability": "view",
      "type": "function"
    },
    {
      "inputs": [
        {
          "internalType": "uint256",
          "name": "_id",
          "type": "uint256"
        }
      ],
      "name": "getAllCoffee",
      "outputs": [
        {
          "components": [
            {
              "internalType": "address",
              "name": "sender",
              "type": "address"
            },
            {
              "internalType": "string",
              "name": "name",
              "type": "string"
            },
            {
              "internalType": "uint256",
              "name": "timestamp",
              "type": "uint256"
            },
            {
              "internalType": "string",
              "name": "message",
              "type": "string"
            }
          ],
          "internalType": "struct BuyMeACoffee.BuyCoffee[]",
          "name": "c",
          "type": "tuple[]"
        }
      ],
      "stateMutability": "view",
      "type": "function"
    },
    {
      "inputs": [],
      "name": "withdrawCoffeTips",
      "outputs": [],
      "stateMutability": "nonpayable",
      "type": "function"
    }
  ],
  "bytecode": "0x608060405234801561001057600080fd5b50336000806101000a81548173ffffffffffffffffffffffffffffffffffffffff021916908373ffffffffffffffffffffffffffffffffffffffff160217905550610f1c806100606000396000f3fe60806040526004361061003f5760003560e01c806314e1e05514610044578063204206e11461006f578063b84722ee1461008b578063f8cd4b07146100a2575b600080fd5b34801561005057600080fd5b506100596100df565b6040516100669190610564565b60405180910390f35b610089600480360381019061008491906106d9565b6100e5565b005b34801561009757600080fd5b506100a0610220565b005b3480156100ae57600080fd5b506100c960048036038101906100c4919061077d565b610280565b6040516100d691906109a5565b60405180910390f35b60025481565b60003411610128576040517f08c379a000000000000000000000000000000000000000000000000000000000815260040161011f90610a24565b60405180910390fd5b6002600081548092919061013b90610a73565b9190505550600060016000600254815260200190815260200160002090508181600301908161016a9190610cc7565b508281600101908161017c9190610cc7565b50338160000160006101000a81548173ffffffffffffffffffffffffffffffffffffffff021916908373ffffffffffffffffffffffffffffffffffffffff1602179055504281600201819055503373ffffffffffffffffffffffffffffffffffffffff167facaf0a2f282f13a941c6f4f59a57886dbe6ed32ab15976fa2e7f5a04170fdaaf84844260405161021393929190610dd2565b60405180910390a2505050565b60008054906101000a900473ffffffffffffffffffffffffffffffffffffffff1673ffffffffffffffffffffffffffffffffffffffff166108fc479081150290604051600060405180830381858888f1935050505061027e57600080fd5b565b60606002548211156102c7576040517f08c379a00000000000000000000000000000000000000000000000000000000081526004016102be90610e63565b60405180910390fd5b8167ffffffffffffffff8111156102e1576102e06105ae565b5b60405190808252806020026020018201604052801561031a57816020015b61030761050d565b8152602001906001900390816102ff5790505b50905060005b8281101561050757600160006001836103399190610e83565b81526020019081526020016000206040518060800160405290816000820160009054906101000a900473ffffffffffffffffffffffffffffffffffffffff1673ffffffffffffffffffffffffffffffffffffffff1673ffffffffffffffffffffffffffffffffffffffff1681526020016001820180546103b890610aea565b80601f01602080910402602001604051908101604052809291908181526020018280546103e490610aea565b80156104315780601f1061040657610100808354040283529160200191610431565b820191906000526020600020905b81548152906001019060200180831161041457829003601f168201915b505050505081526020016002820154815260200160038201805461045490610aea565b80601f016020809104026020016040519081016040528092919081815260200182805461048090610aea565b80156104cd5780601f106104a2576101008083540402835291602001916104cd565b820191906000526020600020905b8154815290600101906020018083116104b057829003601f168201915b5050505050815250508282815181106104e9576104e8610eb7565b5b602002602001018190525080806104ff90610a73565b915050610320565b50919050565b6040518060800160405280600073ffffffffffffffffffffffffffffffffffffffff1681526020016060815260200160008152602001606081525090565b6000819050919050565b61055e8161054b565b82525050565b60006020820190506105796000830184610555565b92915050565b6000604051905090565b600080fd5b600080fd5b600080fd5b600080fd5b6000601f19601f8301169050919050565b7f4e487b7100000000000000000000000000000000000000000000000000000000600052604160045260246000fd5b6105e68261059d565b810181811067ffffffffffffffff82111715610605576106046105ae565b5b80604052505050565b600061061861057f565b905061062482826105dd565b919050565b600067ffffffffffffffff821115610644576106436105ae565b5b61064d8261059d565b9050602081019050919050565b82818337600083830152505050565b600061067c61067784610629565b61060e565b90508281526020810184848401111561069857610697610598565b5b6106a384828561065a565b509392505050565b600082601f8301126106c0576106bf610593565b5b81356106d0848260208601610669565b91505092915050565b600080604083850312156106f0576106ef610589565b5b600083013567ffffffffffffffff81111561070e5761070d61058e565b5b61071a858286016106ab565b925050602083013567ffffffffffffffff81111561073b5761073a61058e565b5b610747858286016106ab565b9150509250929050565b61075a8161054b565b811461076557600080fd5b50565b60008135905061077781610751565b92915050565b60006020828403121561079357610792610589565b5b60006107a184828501610768565b91505092915050565b600081519050919050565b600082825260208201905092915050565b6000819050602082019050919050565b600073ffffffffffffffffffffffffffffffffffffffff82169050919050565b6000610801826107d6565b9050919050565b610811816107f6565b82525050565b600081519050919050565b600082825260208201905092915050565b60005b83811015610851578082015181840152602081019050610836565b60008484015250505050565b600061086882610817565b6108728185610822565b9350610882818560208601610833565b61088b8161059d565b840191505092915050565b61089f8161054b565b82525050565b60006080830160008301516108bd6000860182610808565b50602083015184820360208601526108d5828261085d565b91505060408301516108ea6040860182610896565b5060608301518482036060860152610902828261085d565b9150508091505092915050565b600061091b83836108a5565b905092915050565b6000602082019050919050565b600061093b826107aa565b61094581856107b5565b935083602082028501610957856107c6565b8060005b858110156109935784840389528151610974858261090f565b945061097f83610923565b925060208a0199505060018101905061095b565b50829750879550505050505092915050565b600060208201905081810360008301526109bf8184610930565b905092915050565b600082825260208201905092915050565b7f546970206d7573742062652067726561746572207468616e207a65726f000000600082015250565b6000610a0e601d836109c7565b9150610a19826109d8565b602082019050919050565b60006020820190508181036000830152610a3d81610a01565b9050919050565b7f4e487b7100000000000000000000000000000000000000000000000000000000600052601160045260246000fd5b6000610a7e8261054b565b91507fffffffffffffffffffffffffffffffffffffffffffffffffffffffffffffffff8203610ab057610aaf610a44565b5b600182019050919050565b7f4e487b7100000000000000000000000000000000000000000000000000000000600052602260045260246000fd5b60006002820490506001821680610b0257607f821691505b602082108103610b1557610b14610abb565b5b50919050565b60008190508160005260206000209050919050565b60006020601f8301049050919050565b600082821b905092915050565b600060088302610b7d7fffffffffffffffffffffffffffffffffffffffffffffffffffffffffffffffff82610b40565b610b878683610b40565b95508019841693508086168417925050509392505050565b6000819050919050565b6000610bc4610bbf610bba8461054b565b610b9f565b61054b565b9050919050565b6000819050919050565b610bde83610ba9565b610bf2610bea82610bcb565b848454610b4d565b825550505050565b600090565b610c07610bfa565b610c12818484610bd5565b505050565b5b81811015610c3657610c2b600082610bff565b600181019050610c18565b5050565b601f821115610c7b57610c4c81610b1b565b610c5584610b30565b81016020851015610c64578190505b610c78610c7085610b30565b830182610c17565b50505b505050565b600082821c905092915050565b6000610c9e60001984600802610c80565b1980831691505092915050565b6000610cb78383610c8d565b9150826002028217905092915050565b610cd082610817565b67ffffffffffffffff811115610ce957610ce86105ae565b5b610cf38254610aea565b610cfe828285610c3a565b600060209050601f831160018114610d315760008415610d1f578287015190505b610d298582610cab565b865550610d91565b601f198416610d3f86610b1b565b60005b82811015610d6757848901518255600182019150602085019450602081019050610d42565b86831015610d845784890151610d80601f891682610c8d565b8355505b6001600288020188555050505b505050505050565b6000610da482610817565b610dae81856109c7565b9350610dbe818560208601610833565b610dc78161059d565b840191505092915050565b60006060820190508181036000830152610dec8186610d99565b90508181036020830152610e008185610d99565b9050610e0f6040830184610555565b949350505050565b7f4e6f6e2d6578697374656e742069640000000000000000000000000000000000600082015250565b6000610e4d600f836109c7565b9150610e5882610e17565b602082019050919050565b60006020820190508181036000830152610e7c81610e40565b9050919050565b6000610e8e8261054b565b9150610e998361054b565b9250828201905080821115610eb157610eb0610a44565b5b92915050565b7f4e487b7100000000000000000000000000000000000000000000000000000000600052603260045260246000fdfea2646970667358221220729e6cf977078622df31e3028696745a33a359314170906eb65df0d2cda703ae64736f6c63430008120033",
  "linkReferences": {},
  "deployedLinkReferences": {}
}